{
	"data": {
		"bytecode": {
			"linkReferences": {},
			"object": "6080604052348015600e575f5ffd5b506106fa8061001c5f395ff3fe608060405234801561000f575f5ffd5b5060043610610029575f3560e01c80635fe8c13b1461002d575b5f5ffd5b6100476004803603810190610042919061062b565b61005d565b60405161005491906106ab565b60405180910390f35b5f61056d565b7f30644e72e131a029b85045b68181585d2833e84879b9709143e1f593f00000018110610092575f5f5260205ff35b50565b5f60405183815284602082015285604082015260408160608360076107d05a03fa9150816100c5575f5f5260205ff35b825160408201526020830151606082015260408360808360066107d05a03fa9150816100f3575f5f5260205ff35b505050505050565b5f608086015f87017f2e72352dadc5bbab774fb02864c8f029d271fae833e2177fbea42282e0af54d081527f2bbb0669ed09581e5b20c9be34bb962ebee0e649248e13f746ef1b1bf1a5b27d602082015261019b5f8801357f087b302e7c515b3d2550f0375529e47040a5b9fcc50abd0d35cac327d316c8197f2b0d25fde8c9a5202ed62d856c37293162cf07a7fc14479cd3ee074efdce1ed984610095565b6101eb60208801357f2ab4baf7fdb691008de7d18b366716de230240b61b895da63e2137dcde7127297f03b4bc49baf98e1ea64549b40f59392301517e7d82856e0c2998c3056227fee684610095565b61023b60408801357f0b13f341534f9f82248049b1bc287844d59874d88451494ea3eccacd3bde979c7f289812be798a7643c852106db38b79260a99217d0339145ed9e5002de630cdf384610095565b61028b60608801357f15ccae478d3ea5c61ae37f421bfdff897bc340771d09f81828c9cb95b4aef4f97f05cd832c221cd2a9e3d83758ad20b7f0e96182022b93d3d379460c8edff0708084610095565b833582527f30644e72e131a029b85045b68181585d97816a916871ca8d3c208c16d87cfd4760208501357f30644e72e131a029b85045b68181585d97816a916871ca8d3c208c16d87cfd4703066020830152843560408301526020850135606083015260408501356080830152606085013560a08301527f2d4d9aa7e302d9df41749d5507949d05dbea33fbb16c643b22f599a2be6df2e260c08301527f14bedd503c37ceb061d8ec60209fe345ce89830a19230301f076caff004d192660e08301527f0967032fcbf776d1afc985f88877f182d38480a653f2decaa9794cbc3bf3060c6101008301527f0e187847ad4c798374d0d6732bf501847dd68bc0e071241e0213bc7fc13db7ab6101208301527f304cfbd1e08a704a99f5e847d93f8c3caafddec46b7a0d379da69a4d112346a76101408301527f1739c1b1a457a8c7313123d24d2f9192f896b7c63eea05a9d57f06547ad0cec86101608301525f88015161018083015260205f018801516101a08301527f198e9393920d483a7260bfb731fb5d25f1aa493335a9e71297e485b7aef312c26101c08301527f1800deef121f1e76426a00665e5c4479674322d4f75edadd46debd5cd992f6ed6101e08301527f090689d0585ff075ec9e99ad690c3395bc4b313370b38ef355acdadcd122975b6102008301527f12c85ea5db8c6deb4aab71808dcb408fe3d1e7690c43d37b4ce6cc0166fa7daa610220830152853561024083015260208601356102608301527f198e9393920d483a7260bfb731fb5d25f1aa493335a9e71297e485b7aef312c26102808301527f1800deef121f1e76426a00665e5c4479674322d4f75edadd46debd5cd992f6ed6102a08301527f090689d0585ff075ec9e99ad690c3395bc4b313370b38ef355acdadcd122975b6102c08301527f12c85ea5db8c6deb4aab71808dcb408fe3d1e7690c43d37b4ce6cc0166fa7daa6102e08301526020826103008460086107d05a03fa82518116935050505095945050505050565b60405161038081016040526105845f840135610063565b6105916020840135610063565b61059e6040840135610063565b6105ab6060840135610063565b6105b8818486888a6100fb565b805f5260205ff35b5f5ffd5b5f5ffd5b5f819050826020600202820111156105e3576105e26105c4565b5b92915050565b5f81905082604060020282011115610604576106036105c4565b5b92915050565b5f81905082602060040282011115610625576106246105c4565b5b92915050565b5f5f5f5f6101808587031215610644576106436105c0565b5b5f610651878288016105c8565b9450506040610662878288016105e9565b93505060c0610673878288016105c8565b9250506101006106858782880161060a565b91505092959194509250565b5f8115159050919050565b6106a581610691565b82525050565b5f6020820190506106be5f83018461069c565b9291505056fea2646970667358221220ba6b7c3cc5be39431ced4cf91b229d8cabb94b694c733a3721214003aa92c48a64736f6c634300081d0033",
			"opcodes": "PUSH1 0x80 PUSH1 0x40 MSTORE CALLVALUE DUP1 ISZERO PUSH1 0xE JUMPI PUSH0 PUSH0 REVERT JUMPDEST POP PUSH2 0x6FA DUP1 PUSH2 0x1C PUSH0 CODECOPY PUSH0 RETURN INVALID PUSH1 0x80 PUSH1 0x40 MSTORE CALLVALUE DUP1 ISZERO PUSH2 0xF JUMPI PUSH0 PUSH0 REVERT JUMPDEST POP PUSH1 0x4 CALLDATASIZE LT PUSH2 0x29 JUMPI PUSH0 CALLDATALOAD PUSH1 0xE0 SHR DUP1 PUSH4 0x5FE8C13B EQ PUSH2 0x2D JUMPI JUMPDEST PUSH0 PUSH0 REVERT JUMPDEST PUSH2 0x47 PUSH1 0x4 DUP1 CALLDATASIZE SUB DUP2 ADD SWAP1 PUSH2 0x42 SWAP2 SWAP1 PUSH2 0x62B JUMP JUMPDEST PUSH2 0x5D JUMP JUMPDEST PUSH1 0x40 MLOAD PUSH2 0x54 SWAP2 SWAP1 PUSH2 0x6AB JUMP JUMPDEST PUSH1 0x40 MLOAD DUP1 SWAP2 SUB SWAP1 RETURN JUMPDEST PUSH0 PUSH2 0x56D JUMP JUMPDEST PUSH32 0x30644E72E131A029B85045B68181585D2833E84879B9709143E1F593F0000001 DUP2 LT PUSH2 0x92 JUMPI PUSH0 PUSH0 MSTORE PUSH1 0x20 PUSH0 RETURN JUMPDEST POP JUMP JUMPDEST PUSH0 PUSH1 0x40 MLOAD DUP4 DUP2 MSTORE DUP5 PUSH1 0x20 DUP3 ADD MSTORE DUP6 PUSH1 0x40 DUP3 ADD MSTORE PUSH1 0x40 DUP2 PUSH1 0x60 DUP4 PUSH1 0x7 PUSH2 0x7D0 GAS SUB STATICCALL SWAP2 POP DUP2 PUSH2 0xC5 JUMPI PUSH0 PUSH0 MSTORE PUSH1 0x20 PUSH0 RETURN JUMPDEST DUP3 MLOAD PUSH1 0x40 DUP3 ADD MSTORE PUSH1 0x20 DUP4 ADD MLOAD PUSH1 0x60 DUP3 ADD MSTORE PUSH1 0x40 DUP4 PUSH1 0x80 DUP4 PUSH1 0x6 PUSH2 0x7D0 GAS SUB STATICCALL SWAP2 POP DUP2 PUSH2 0xF3 JUMPI PUSH0 PUSH0 MSTORE PUSH1 0x20 PUSH0 RETURN JUMPDEST POP POP POP POP POP POP JUMP JUMPDEST PUSH0 PUSH1 0x80 DUP7 ADD PUSH0 DUP8 ADD PUSH32 0x2E72352DADC5BBAB774FB02864C8F029D271FAE833E2177FBEA42282E0AF54D0 DUP2 MSTORE PUSH32 0x2BBB0669ED09581E5B20C9BE34BB962EBEE0E649248E13F746EF1B1BF1A5B27D PUSH1 0x20 DUP3 ADD MSTORE PUSH2 0x19B PUSH0 DUP9 ADD CALLDATALOAD PUSH32 0x87B302E7C515B3D2550F0375529E47040A5B9FCC50ABD0D35CAC327D316C819 PUSH32 0x2B0D25FDE8C9A5202ED62D856C37293162CF07A7FC14479CD3EE074EFDCE1ED9 DUP5 PUSH2 0x95 JUMP JUMPDEST PUSH2 0x1EB PUSH1 0x20 DUP9 ADD CALLDATALOAD PUSH32 0x2AB4BAF7FDB691008DE7D18B366716DE230240B61B895DA63E2137DCDE712729 PUSH32 0x3B4BC49BAF98E1EA64549B40F59392301517E7D82856E0C2998C3056227FEE6 DUP5 PUSH2 0x95 JUMP JUMPDEST PUSH2 0x23B PUSH1 0x40 DUP9 ADD CALLDATALOAD PUSH32 0xB13F341534F9F82248049B1BC287844D59874D88451494EA3ECCACD3BDE979C PUSH32 0x289812BE798A7643C852106DB38B79260A99217D0339145ED9E5002DE630CDF3 DUP5 PUSH2 0x95 JUMP JUMPDEST PUSH2 0x28B PUSH1 0x60 DUP9 ADD CALLDATALOAD PUSH32 0x15CCAE478D3EA5C61AE37F421BFDFF897BC340771D09F81828C9CB95B4AEF4F9 PUSH32 0x5CD832C221CD2A9E3D83758AD20B7F0E96182022B93D3D379460C8EDFF07080 DUP5 PUSH2 0x95 JUMP JUMPDEST DUP4 CALLDATALOAD DUP3 MSTORE PUSH32 0x30644E72E131A029B85045B68181585D97816A916871CA8D3C208C16D87CFD47 PUSH1 0x20 DUP6 ADD CALLDATALOAD PUSH32 0x30644E72E131A029B85045B68181585D97816A916871CA8D3C208C16D87CFD47 SUB MOD PUSH1 0x20 DUP4 ADD MSTORE DUP5 CALLDATALOAD PUSH1 0x40 DUP4 ADD MSTORE PUSH1 0x20 DUP6 ADD CALLDATALOAD PUSH1 0x60 DUP4 ADD MSTORE PUSH1 0x40 DUP6 ADD CALLDATALOAD PUSH1 0x80 DUP4 ADD MSTORE PUSH1 0x60 DUP6 ADD CALLDATALOAD PUSH1 0xA0 DUP4 ADD MSTORE PUSH32 0x2D4D9AA7E302D9DF41749D5507949D05DBEA33FBB16C643B22F599A2BE6DF2E2 PUSH1 0xC0 DUP4 ADD MSTORE PUSH32 0x14BEDD503C37CEB061D8EC60209FE345CE89830A19230301F076CAFF004D1926 PUSH1 0xE0 DUP4 ADD MSTORE PUSH32 0x967032FCBF776D1AFC985F88877F182D38480A653F2DECAA9794CBC3BF3060C PUSH2 0x100 DUP4 ADD MSTORE PUSH32 0xE187847AD4C798374D0D6732BF501847DD68BC0E071241E0213BC7FC13DB7AB PUSH2 0x120 DUP4 ADD MSTORE PUSH32 0x304CFBD1E08A704A99F5E847D93F8C3CAAFDDEC46B7A0D379DA69A4D112346A7 PUSH2 0x140 DUP4 ADD MSTORE PUSH32 0x1739C1B1A457A8C7313123D24D2F9192F896B7C63EEA05A9D57F06547AD0CEC8 PUSH2 0x160 DUP4 ADD MSTORE PUSH0 DUP9 ADD MLOAD PUSH2 0x180 DUP4 ADD MSTORE PUSH1 0x20 PUSH0 ADD DUP9 ADD MLOAD PUSH2 0x1A0 DUP4 ADD MSTORE PUSH32 0x198E9393920D483A7260BFB731FB5D25F1AA493335A9E71297E485B7AEF312C2 PUSH2 0x1C0 DUP4 ADD MSTORE PUSH32 0x1800DEEF121F1E76426A00665E5C4479674322D4F75EDADD46DEBD5CD992F6ED PUSH2 0x1E0 DUP4 ADD MSTORE PUSH32 0x90689D0585FF075EC9E99AD690C3395BC4B313370B38EF355ACDADCD122975B PUSH2 0x200 DUP4 ADD MSTORE PUSH32 0x12C85EA5DB8C6DEB4AAB71808DCB408FE3D1E7690C43D37B4CE6CC0166FA7DAA PUSH2 0x220 DUP4 ADD MSTORE DUP6 CALLDATALOAD PUSH2 0x240 DUP4 ADD MSTORE PUSH1 0x20 DUP7 ADD CALLDATALOAD PUSH2 0x260 DUP4 ADD MSTORE PUSH32 0x198E9393920D483A7260BFB731FB5D25F1AA493335A9E71297E485B7AEF312C2 PUSH2 0x280 DUP4 ADD MSTORE PUSH32 0x1800DEEF121F1E76426A00665E5C4479674322D4F75EDADD46DEBD5CD992F6ED PUSH2 0x2A0 DUP4 ADD MSTORE PUSH32 0x90689D0585FF075EC9E99AD690C3395BC4B313370B38EF355ACDADCD122975B PUSH2 0x2C0 DUP4 ADD MSTORE PUSH32 0x12C85EA5DB8C6DEB4AAB71808DCB408FE3D1E7690C43D37B4CE6CC0166FA7DAA PUSH2 0x2E0 DUP4 ADD MSTORE PUSH1 0x20 DUP3 PUSH2 0x300 DUP5 PUSH1 0x8 PUSH2 0x7D0 GAS SUB STATICCALL DUP3 MLOAD DUP2 AND SWAP4 POP POP POP POP SWAP6 SWAP5 POP POP POP POP POP JUMP JUMPDEST PUSH1 0x40 MLOAD PUSH2 0x380 DUP2 ADD PUSH1 0x40 MSTORE PUSH2 0x584 PUSH0 DUP5 ADD CALLDATALOAD PUSH2 0x63 JUMP JUMPDEST PUSH2 0x591 PUSH1 0x20 DUP5 ADD CALLDATALOAD PUSH2 0x63 JUMP JUMPDEST PUSH2 0x59E PUSH1 0x40 DUP5 ADD CALLDATALOAD PUSH2 0x63 JUMP JUMPDEST PUSH2 0x5AB PUSH1 0x60 DUP5 ADD CALLDATALOAD PUSH2 0x63 JUMP JUMPDEST PUSH2 0x5B8 DUP2 DUP5 DUP7 DUP9 DUP11 PUSH2 0xFB JUMP JUMPDEST DUP1 PUSH0 MSTORE PUSH1 0x20 PUSH0 RETURN JUMPDEST PUSH0 PUSH0 REVERT JUMPDEST PUSH0 PUSH0 REVERT JUMPDEST PUSH0 DUP2 SWAP1 POP DUP3 PUSH1 0x20 PUSH1 0x2 MUL DUP3 ADD GT ISZERO PUSH2 0x5E3 JUMPI PUSH2 0x5E2 PUSH2 0x5C4 JUMP JUMPDEST JUMPDEST SWAP3 SWAP2 POP POP JUMP JUMPDEST PUSH0 DUP2 SWAP1 POP DUP3 PUSH1 0x40 PUSH1 0x2 MUL DUP3 ADD GT ISZERO PUSH2 0x604 JUMPI PUSH2 0x603 PUSH2 0x5C4 JUMP JUMPDEST JUMPDEST SWAP3 SWAP2 POP POP JUMP JUMPDEST PUSH0 DUP2 SWAP1 POP DUP3 PUSH1 0x20 PUSH1 0x4 MUL DUP3 ADD GT ISZERO PUSH2 0x625 JUMPI PUSH2 0x624 PUSH2 0x5C4 JUMP JUMPDEST JUMPDEST SWAP3 SWAP2 POP POP JUMP JUMPDEST PUSH0 PUSH0 PUSH0 PUSH0 PUSH2 0x180 DUP6 DUP8 SUB SLT ISZERO PUSH2 0x644 JUMPI PUSH2 0x643 PUSH2 0x5C0 JUMP JUMPDEST JUMPDEST PUSH0 PUSH2 0x651 DUP8 DUP3 DUP9 ADD PUSH2 0x5C8 JUMP JUMPDEST SWAP5 POP POP PUSH1 0x40 PUSH2 0x662 DUP8 DUP3 DUP9 ADD PUSH2 0x5E9 JUMP JUMPDEST SWAP4 POP POP PUSH1 0xC0 PUSH2 0x673 DUP8 DUP3 DUP9 ADD PUSH2 0x5C8 JUMP JUMPDEST SWAP3 POP POP PUSH2 0x100 PUSH2 0x685 DUP8 DUP3 DUP9 ADD PUSH2 0x60A JUMP JUMPDEST SWAP2 POP POP SWAP3 SWAP6 SWAP2 SWAP5 POP SWAP3 POP JUMP JUMPDEST PUSH0 DUP2 ISZERO ISZERO SWAP1 POP SWAP2 SWAP1 POP JUMP JUMPDEST PUSH2 0x6A5 DUP2 PUSH2 0x691 JUMP JUMPDEST DUP3 MSTORE POP POP JUMP JUMPDEST PUSH0 PUSH1 0x20 DUP3 ADD SWAP1 POP PUSH2 0x6BE PUSH0 DUP4 ADD DUP5 PUSH2 0x69C JUMP JUMPDEST SWAP3 SWAP2 POP POP JUMP INVALID LOG2 PUSH5 0x6970667358 0x22 SLT KECCAK256 0xBA PUSH12 0x7C3CC5BE39431CED4CF91B22 SWAP14 DUP13 0xAB 0xB9 0x4B PUSH10 0x4C733A3721214003AA92 0xC4 DUP11 PUSH5 0x736F6C6343 STOP ADDMOD SAR STOP CALLER "
		},
		"gasEstimates": {
			"creation": {
				"codeDepositCost": "357200",
				"executionCost": "391",
				"totalCost": "357591"
			},
			"external": {
				"verifyProof(uint256[2],uint256[2][2],uint256[2],uint256[4])": "infinite"
			}
		},
		"methodIdentifiers": {
			"verifyProof(uint256[2],uint256[2][2],uint256[2],uint256[4])": "5fe8c13b"
		}
	},
	"abi": [
		{
			"inputs": [
				{
					"internalType": "uint256[2]",
					"name": "_pA",
					"type": "uint256[2]"
				},
				{
					"internalType": "uint256[2][2]",
					"name": "_pB",
					"type": "uint256[2][2]"
				},
				{
					"internalType": "uint256[2]",
					"name": "_pC",
					"type": "uint256[2]"
				},
				{
					"internalType": "uint256[4]",
					"name": "_pubSignals",
					"type": "uint256[4]"
				}
			],
			"name": "verifyProof",
			"outputs": [
				{
					"internalType": "bool",
					"name": "",
					"type": "bool"
				}
			],
			"stateMutability": "view",
			"type": "function"
		}
	]
}