{
	"SmartContract/128verifier.sol": {
		"Groth16Verifier": {
			"abi": [
				{
					"inputs": [
						{
							"internalType": "uint256[2]",
							"name": "_pA",
							"type": "uint256[2]"
						},
						{
							"internalType": "uint256[2][2]",
							"name": "_pB",
							"type": "uint256[2][2]"
						},
						{
							"internalType": "uint256[2]",
							"name": "_pC",
							"type": "uint256[2]"
						},
						{
							"internalType": "uint256[4]",
							"name": "_pubSignals",
							"type": "uint256[4]"
						}
					],
					"name": "verifyProof",
					"outputs": [
						{
							"internalType": "bool",
							"name": "",
							"type": "bool"
						}
					],
					"stateMutability": "view",
					"type": "function"
				}
			],
			"devdoc": {
				"kind": "dev",
				"methods": {},
				"version": 1
			},
			"evm": {
				"assembly": "    /* \"SmartContract/128verifier.sol\":831:8225  contract Groth16Verifier {... */\n  mstore(0x40, 0x80)\n  callvalue\n  dup1\n  iszero\n  tag_1\n  jumpi\n  revert(0x00, 0x00)\ntag_1:\n  pop\n  dataSize(sub_0)\n  dup1\n  dataOffset(sub_0)\n  0x00\n  codecopy\n  0x00\n  return\nstop\n\nsub_0: assembly {\n        /* \"SmartContract/128verifier.sol\":831:8225  contract Groth16Verifier {... */\n      mstore(0x40, 0x80)\n      callvalue\n      dup1\n      iszero\n      tag_1\n      jumpi\n      revert(0x00, 0x00)\n    tag_1:\n      pop\n      jumpi(tag_2, lt(calldatasize, 0x04))\n      shr(0xe0, calldataload(0x00))\n      dup1\n      0x5fe8c13b\n      eq\n      tag_3\n      jumpi\n    tag_2:\n      revert(0x00, 0x00)\n        /* \"SmartContract/128verifier.sol\":3906:8222  function verifyProof(uint[2] calldata _pA, uint[2][2] calldata _pB, uint[2] calldata _pC, uint[4] calldata _pubSignals) public view returns (bool) {... */\n    tag_3:\n      tag_4\n      0x04\n      dup1\n      calldatasize\n      sub\n      dup2\n      add\n      swap1\n      tag_5\n      swap2\n      swap1\n      tag_6\n      jump\t// in\n    tag_5:\n      tag_7\n      jump\t// in\n    tag_4:\n      mload(0x40)\n      tag_8\n      swap2\n      swap1\n      tag_9\n      jump\t// in\n    tag_8:\n      mload(0x40)\n      dup1\n      swap2\n      sub\n      swap1\n      return\n    tag_7:\n        /* \"SmartContract/128verifier.sol\":4047:4051  bool */\n      0x00\n        /* \"SmartContract/128verifier.sol\":4086:4249  function checkField(v) {... */\n      jump(tag_14)\n    tag_11:\n        /* \"SmartContract/128verifier.sol\":4143:4144  r */\n      0x30644e72e131a029b85045b68181585d2833e84879b9709143e1f593f0000001\n        /* \"SmartContract/128verifier.sol\":4140:4141  v */\n      dup2\n        /* \"SmartContract/128verifier.sol\":4137:4145  lt(v, r) */\n      lt\n        /* \"SmartContract/128verifier.sol\":4127:4235  if iszero(lt(v, r)) {... */\n      tag_16\n      jumpi\n        /* \"SmartContract/128verifier.sol\":4179:4180  0 */\n      0x00\n        /* \"SmartContract/128verifier.sol\":4176:4177  0 */\n      0x00\n        /* \"SmartContract/128verifier.sol\":4169:4181  mstore(0, 0) */\n      mstore\n        /* \"SmartContract/128verifier.sol\":4212:4216  0x20 */\n      0x20\n        /* \"SmartContract/128verifier.sol\":4209:4210  0 */\n      0x00\n        /* \"SmartContract/128verifier.sol\":4202:4217  return(0, 0x20) */\n      return\n        /* \"SmartContract/128verifier.sol\":4127:4235  if iszero(lt(v, r)) {... */\n    tag_16:\n        /* \"SmartContract/128verifier.sol\":4086:4249  function checkField(v) {... */\n      pop\n      jump\t// out\n        /* \"SmartContract/128verifier.sol\":4353:5091  function g1_mulAccC(pR, x, y, s) {... */\n    tag_12:\n        /* \"SmartContract/128verifier.sol\":4404:4415  let success */\n      0x00\n        /* \"SmartContract/128verifier.sol\":4449:4453  0x40 */\n      0x40\n        /* \"SmartContract/128verifier.sol\":4443:4454  mload(0x40) */\n      mload\n        /* \"SmartContract/128verifier.sol\":4483:4484  x */\n      dup4\n        /* \"SmartContract/128verifier.sol\":4478:4481  mIn */\n      dup2\n        /* \"SmartContract/128verifier.sol\":4471:4485  mstore(mIn, x) */\n      mstore\n        /* \"SmartContract/128verifier.sol\":4523:4524  y */\n      dup5\n        /* \"SmartContract/128verifier.sol\":4518:4520  32 */\n      0x20\n        /* \"SmartContract/128verifier.sol\":4513:4516  mIn */\n      dup3\n        /* \"SmartContract/128verifier.sol\":4509:4521  add(mIn, 32) */\n      add\n        /* \"SmartContract/128verifier.sol\":4502:4525  mstore(add(mIn, 32), y) */\n      mstore\n        /* \"SmartContract/128verifier.sol\":4563:4564  s */\n      dup6\n        /* \"SmartContract/128verifier.sol\":4558:4560  64 */\n      0x40\n        /* \"SmartContract/128verifier.sol\":4553:4556  mIn */\n      dup3\n        /* \"SmartContract/128verifier.sol\":4549:4561  add(mIn, 64) */\n      add\n        /* \"SmartContract/128verifier.sol\":4542:4565  mstore(add(mIn, 64), s) */\n      mstore\n        /* \"SmartContract/128verifier.sol\":4640:4642  64 */\n      0x40\n        /* \"SmartContract/128verifier.sol\":4635:4638  mIn */\n      dup2\n        /* \"SmartContract/128verifier.sol\":4631:4633  96 */\n      0x60\n        /* \"SmartContract/128verifier.sol\":4626:4629  mIn */\n      dup4\n        /* \"SmartContract/128verifier.sol\":4623:4624  7 */\n      0x07\n        /* \"SmartContract/128verifier.sol\":4616:4620  2000 */\n      0x07d0\n        /* \"SmartContract/128verifier.sol\":4609:4614  gas() */\n      gas\n        /* \"SmartContract/128verifier.sol\":4605:4621  sub(gas(), 2000) */\n      sub\n        /* \"SmartContract/128verifier.sol\":4594:4643  staticcall(sub(gas(), 2000), 7, mIn, 96, mIn, 64) */\n      staticcall\n        /* \"SmartContract/128verifier.sol\":4583:4643  success := staticcall(sub(gas(), 2000), 7, mIn, 96, mIn, 64) */\n      swap2\n      pop\n        /* \"SmartContract/128verifier.sol\":4671:4678  success */\n      dup2\n        /* \"SmartContract/128verifier.sol\":4661:4768  if iszero(success) {... */\n      tag_18\n      jumpi\n        /* \"SmartContract/128verifier.sol\":4712:4713  0 */\n      0x00\n        /* \"SmartContract/128verifier.sol\":4709:4710  0 */\n      0x00\n        /* \"SmartContract/128verifier.sol\":4702:4714  mstore(0, 0) */\n      mstore\n        /* \"SmartContract/128verifier.sol\":4745:4749  0x20 */\n      0x20\n        /* \"SmartContract/128verifier.sol\":4742:4743  0 */\n      0x00\n        /* \"SmartContract/128verifier.sol\":4735:4750  return(0, 0x20) */\n      return\n        /* \"SmartContract/128verifier.sol\":4661:4768  if iszero(success) {... */\n    tag_18:\n        /* \"SmartContract/128verifier.sol\":4813:4815  pR */\n      dup3\n        /* \"SmartContract/128verifier.sol\":4807:4816  mload(pR) */\n      mload\n        /* \"SmartContract/128verifier.sol\":4802:4804  64 */\n      0x40\n        /* \"SmartContract/128verifier.sol\":4797:4800  mIn */\n      dup3\n        /* \"SmartContract/128verifier.sol\":4793:4805  add(mIn, 64) */\n      add\n        /* \"SmartContract/128verifier.sol\":4786:4817  mstore(add(mIn, 64), mload(pR)) */\n      mstore\n        /* \"SmartContract/128verifier.sol\":4869:4871  32 */\n      0x20\n        /* \"SmartContract/128verifier.sol\":4865:4867  pR */\n      dup4\n        /* \"SmartContract/128verifier.sol\":4861:4872  add(pR, 32) */\n      add\n        /* \"SmartContract/128verifier.sol\":4855:4873  mload(add(pR, 32)) */\n      mload\n        /* \"SmartContract/128verifier.sol\":4850:4852  96 */\n      0x60\n        /* \"SmartContract/128verifier.sol\":4845:4848  mIn */\n      dup3\n        /* \"SmartContract/128verifier.sol\":4841:4853  add(mIn, 96) */\n      add\n        /* \"SmartContract/128verifier.sol\":4834:4874  mstore(add(mIn, 96), mload(add(pR, 32))) */\n      mstore\n        /* \"SmartContract/128verifier.sol\":4949:4951  64 */\n      0x40\n        /* \"SmartContract/128verifier.sol\":4945:4947  pR */\n      dup4\n        /* \"SmartContract/128verifier.sol\":4940:4943  128 */\n      0x80\n        /* \"SmartContract/128verifier.sol\":4935:4938  mIn */\n      dup4\n        /* \"SmartContract/128verifier.sol\":4932:4933  6 */\n      0x06\n        /* \"SmartContract/128verifier.sol\":4925:4929  2000 */\n      0x07d0\n        /* \"SmartContract/128verifier.sol\":4918:4923  gas() */\n      gas\n        /* \"SmartContract/128verifier.sol\":4914:4930  sub(gas(), 2000) */\n      sub\n        /* \"SmartContract/128verifier.sol\":4903:4952  staticcall(sub(gas(), 2000), 6, mIn, 128, pR, 64) */\n      staticcall\n        /* \"SmartContract/128verifier.sol\":4892:4952  success := staticcall(sub(gas(), 2000), 6, mIn, 128, pR, 64) */\n      swap2\n      pop\n        /* \"SmartContract/128verifier.sol\":4980:4987  success */\n      dup2\n        /* \"SmartContract/128verifier.sol\":4970:5077  if iszero(success) {... */\n      tag_19\n      jumpi\n        /* \"SmartContract/128verifier.sol\":5021:5022  0 */\n      0x00\n        /* \"SmartContract/128verifier.sol\":5018:5019  0 */\n      0x00\n        /* \"SmartContract/128verifier.sol\":5011:5023  mstore(0, 0) */\n      mstore\n        /* \"SmartContract/128verifier.sol\":5054:5058  0x20 */\n      0x20\n        /* \"SmartContract/128verifier.sol\":5051:5052  0 */\n      0x00\n        /* \"SmartContract/128verifier.sol\":5044:5059  return(0, 0x20) */\n      return\n        /* \"SmartContract/128verifier.sol\":4970:5077  if iszero(success) {... */\n    tag_19:\n        /* \"SmartContract/128verifier.sol\":4386:5091  {... */\n      pop\n      pop\n        /* \"SmartContract/128verifier.sol\":4353:5091  function g1_mulAccC(pR, x, y, s) {... */\n      pop\n      pop\n      pop\n      pop\n      jump\t// out\n        /* \"SmartContract/128verifier.sol\":5105:7593  function checkPairing(pA, pB, pC, pubSignals, pMem) -> isOk {... */\n    tag_13:\n        /* \"SmartContract/128verifier.sol\":5160:5164  isOk */\n      0x00\n        /* \"SmartContract/128verifier.sol\":5210:5218  pPairing */\n      0x80\n        /* \"SmartContract/128verifier.sol\":5204:5208  pMem */\n      dup7\n        /* \"SmartContract/128verifier.sol\":5200:5219  add(pMem, pPairing) */\n      add\n        /* \"SmartContract/128verifier.sol\":5258:5261  pVk */\n      0x00\n        /* \"SmartContract/128verifier.sol\":5252:5256  pMem */\n      dup8\n        /* \"SmartContract/128verifier.sol\":5248:5262  add(pMem, pVk) */\n      add\n        /* \"SmartContract/128verifier.sol\":5293:5297  IC0x */\n      0x2e72352dadc5bbab774fb02864c8f029d271fae833e2177fbea42282e0af54d0\n        /* \"SmartContract/128verifier.sol\":5287:5291  _pVk */\n      dup2\n        /* \"SmartContract/128verifier.sol\":5280:5298  mstore(_pVk, IC0x) */\n      mstore\n        /* \"SmartContract/128verifier.sol\":5337:5341  IC0y */\n      0x2bbb0669ed09581e5b20c9be34bb962ebee0e649248e13f746ef1b1bf1a5b27d\n        /* \"SmartContract/128verifier.sol\":5332:5334  32 */\n      0x20\n        /* \"SmartContract/128verifier.sol\":5326:5330  _pVk */\n      dup3\n        /* \"SmartContract/128verifier.sol\":5322:5335  add(_pVk, 32) */\n      add\n        /* \"SmartContract/128verifier.sol\":5315:5342  mstore(add(_pVk, 32), IC0y) */\n      mstore\n        /* \"SmartContract/128verifier.sol\":5432:5494  g1_mulAccC(_pVk, IC1x, IC1y, calldataload(add(pubSignals, 0))) */\n      tag_21\n        /* \"SmartContract/128verifier.sol\":5490:5491  0 */\n      0x00\n        /* \"SmartContract/128verifier.sol\":5478:5488  pubSignals */\n      dup9\n        /* \"SmartContract/128verifier.sol\":5474:5492  add(pubSignals, 0) */\n      add\n        /* \"SmartContract/128verifier.sol\":5461:5493  calldataload(add(pubSignals, 0)) */\n      calldataload\n        /* \"SmartContract/128verifier.sol\":5455:5459  IC1y */\n      0x087b302e7c515b3d2550f0375529e47040a5b9fcc50abd0d35cac327d316c819\n        /* \"SmartContract/128verifier.sol\":5449:5453  IC1x */\n      0x2b0d25fde8c9a5202ed62d856c37293162cf07a7fc14479cd3ee074efdce1ed9\n        /* \"SmartContract/128verifier.sol\":5443:5447  _pVk */\n      dup5\n        /* \"SmartContract/128verifier.sol\":5432:5494  g1_mulAccC(_pVk, IC1x, IC1y, calldataload(add(pubSignals, 0))) */\n      tag_12\n      jump\t// in\n    tag_21:\n        /* \"SmartContract/128verifier.sol\":5528:5591  g1_mulAccC(_pVk, IC2x, IC2y, calldataload(add(pubSignals, 32))) */\n      tag_22\n        /* \"SmartContract/128verifier.sol\":5586:5588  32 */\n      0x20\n        /* \"SmartContract/128verifier.sol\":5574:5584  pubSignals */\n      dup9\n        /* \"SmartContract/128verifier.sol\":5570:5589  add(pubSignals, 32) */\n      add\n        /* \"SmartContract/128verifier.sol\":5557:5590  calldataload(add(pubSignals, 32)) */\n      calldataload\n        /* \"SmartContract/128verifier.sol\":5551:5555  IC2y */\n      0x2ab4baf7fdb691008de7d18b366716de230240b61b895da63e2137dcde712729\n        /* \"SmartContract/128verifier.sol\":5545:5549  IC2x */\n      0x03b4bc49baf98e1ea64549b40f59392301517e7d82856e0c2998c3056227fee6\n        /* \"SmartContract/128verifier.sol\":5539:5543  _pVk */\n      dup5\n        /* \"SmartContract/128verifier.sol\":5528:5591  g1_mulAccC(_pVk, IC2x, IC2y, calldataload(add(pubSignals, 32))) */\n      tag_12\n      jump\t// in\n    tag_22:\n        /* \"SmartContract/128verifier.sol\":5625:5688  g1_mulAccC(_pVk, IC3x, IC3y, calldataload(add(pubSignals, 64))) */\n      tag_23\n        /* \"SmartContract/128verifier.sol\":5683:5685  64 */\n      0x40\n        /* \"SmartContract/128verifier.sol\":5671:5681  pubSignals */\n      dup9\n        /* \"SmartContract/128verifier.sol\":5667:5686  add(pubSignals, 64) */\n      add\n        /* \"SmartContract/128verifier.sol\":5654:5687  calldataload(add(pubSignals, 64)) */\n      calldataload\n        /* \"SmartContract/128verifier.sol\":5648:5652  IC3y */\n      0x0b13f341534f9f82248049b1bc287844d59874d88451494ea3eccacd3bde979c\n        /* \"SmartContract/128verifier.sol\":5642:5646  IC3x */\n      0x289812be798a7643c852106db38b79260a99217d0339145ed9e5002de630cdf3\n        /* \"SmartContract/128verifier.sol\":5636:5640  _pVk */\n      dup5\n        /* \"SmartContract/128verifier.sol\":5625:5688  g1_mulAccC(_pVk, IC3x, IC3y, calldataload(add(pubSignals, 64))) */\n      tag_12\n      jump\t// in\n    tag_23:\n        /* \"SmartContract/128verifier.sol\":5722:5785  g1_mulAccC(_pVk, IC4x, IC4y, calldataload(add(pubSignals, 96))) */\n      tag_24\n        /* \"SmartContract/128verifier.sol\":5780:5782  96 */\n      0x60\n        /* \"SmartContract/128verifier.sol\":5768:5778  pubSignals */\n      dup9\n        /* \"SmartContract/128verifier.sol\":5764:5783  add(pubSignals, 96) */\n      add\n        /* \"SmartContract/128verifier.sol\":5751:5784  calldataload(add(pubSignals, 96)) */\n      calldataload\n        /* \"SmartContract/128verifier.sol\":5745:5749  IC4y */\n      0x15ccae478d3ea5c61ae37f421bfdff897bc340771d09f81828c9cb95b4aef4f9\n        /* \"SmartContract/128verifier.sol\":5739:5743  IC4x */\n      0x05cd832c221cd2a9e3d83758ad20b7f0e96182022b93d3d379460c8edff07080\n        /* \"SmartContract/128verifier.sol\":5733:5737  _pVk */\n      dup5\n        /* \"SmartContract/128verifier.sol\":5722:5785  g1_mulAccC(_pVk, IC4x, IC4y, calldataload(add(pubSignals, 96))) */\n      tag_12\n      jump\t// in\n    tag_24:\n        /* \"SmartContract/128verifier.sol\":5873:5875  pA */\n      dup4\n        /* \"SmartContract/128verifier.sol\":5860:5876  calldataload(pA) */\n      calldataload\n        /* \"SmartContract/128verifier.sol\":5849:5858  _pPairing */\n      dup3\n        /* \"SmartContract/128verifier.sol\":5842:5877  mstore(_pPairing, calldataload(pA)) */\n      mstore\n        /* \"SmartContract/128verifier.sol\":5960:5961  q */\n      0x30644e72e131a029b85045b68181585d97816a916871ca8d3c208c16d87cfd47\n        /* \"SmartContract/128verifier.sol\":5953:5955  32 */\n      0x20\n        /* \"SmartContract/128verifier.sol\":5949:5951  pA */\n      dup6\n        /* \"SmartContract/128verifier.sol\":5945:5956  add(pA, 32) */\n      add\n        /* \"SmartContract/128verifier.sol\":5932:5957  calldataload(add(pA, 32)) */\n      calldataload\n        /* \"SmartContract/128verifier.sol\":5929:5930  q */\n      0x30644e72e131a029b85045b68181585d97816a916871ca8d3c208c16d87cfd47\n        /* \"SmartContract/128verifier.sol\":5925:5958  sub(q, calldataload(add(pA, 32))) */\n      sub\n        /* \"SmartContract/128verifier.sol\":5921:5962  mod(sub(q, calldataload(add(pA, 32))), q) */\n      mod\n        /* \"SmartContract/128verifier.sol\":5916:5918  32 */\n      0x20\n        /* \"SmartContract/128verifier.sol\":5905:5914  _pPairing */\n      dup4\n        /* \"SmartContract/128verifier.sol\":5901:5919  add(_pPairing, 32) */\n      add\n        /* \"SmartContract/128verifier.sol\":5894:5963  mstore(add(_pPairing, 32), mod(sub(q, calldataload(add(pA, 32))), q)) */\n      mstore\n        /* \"SmartContract/128verifier.sol\":6042:6044  pB */\n      dup5\n        /* \"SmartContract/128verifier.sol\":6029:6045  calldataload(pB) */\n      calldataload\n        /* \"SmartContract/128verifier.sol\":6024:6026  64 */\n      0x40\n        /* \"SmartContract/128verifier.sol\":6013:6022  _pPairing */\n      dup4\n        /* \"SmartContract/128verifier.sol\":6009:6027  add(_pPairing, 64) */\n      add\n        /* \"SmartContract/128verifier.sol\":6002:6046  mstore(add(_pPairing, 64), calldataload(pB)) */\n      mstore\n        /* \"SmartContract/128verifier.sol\":6111:6113  32 */\n      0x20\n        /* \"SmartContract/128verifier.sol\":6107:6109  pB */\n      dup6\n        /* \"SmartContract/128verifier.sol\":6103:6114  add(pB, 32) */\n      add\n        /* \"SmartContract/128verifier.sol\":6090:6115  calldataload(add(pB, 32)) */\n      calldataload\n        /* \"SmartContract/128verifier.sol\":6085:6087  96 */\n      0x60\n        /* \"SmartContract/128verifier.sol\":6074:6083  _pPairing */\n      dup4\n        /* \"SmartContract/128verifier.sol\":6070:6088  add(_pPairing, 96) */\n      add\n        /* \"SmartContract/128verifier.sol\":6063:6116  mstore(add(_pPairing, 96), calldataload(add(pB, 32))) */\n      mstore\n        /* \"SmartContract/128verifier.sol\":6182:6184  64 */\n      0x40\n        /* \"SmartContract/128verifier.sol\":6178:6180  pB */\n      dup6\n        /* \"SmartContract/128verifier.sol\":6174:6185  add(pB, 64) */\n      add\n        /* \"SmartContract/128verifier.sol\":6161:6186  calldataload(add(pB, 64)) */\n      calldataload\n        /* \"SmartContract/128verifier.sol\":6155:6158  128 */\n      0x80\n        /* \"SmartContract/128verifier.sol\":6144:6153  _pPairing */\n      dup4\n        /* \"SmartContract/128verifier.sol\":6140:6159  add(_pPairing, 128) */\n      add\n        /* \"SmartContract/128verifier.sol\":6133:6187  mstore(add(_pPairing, 128), calldataload(add(pB, 64))) */\n      mstore\n        /* \"SmartContract/128verifier.sol\":6253:6255  96 */\n      0x60\n        /* \"SmartContract/128verifier.sol\":6249:6251  pB */\n      dup6\n        /* \"SmartContract/128verifier.sol\":6245:6256  add(pB, 96) */\n      add\n        /* \"SmartContract/128verifier.sol\":6232:6257  calldataload(add(pB, 96)) */\n      calldataload\n        /* \"SmartContract/128verifier.sol\":6226:6229  160 */\n      0xa0\n        /* \"SmartContract/128verifier.sol\":6215:6224  _pPairing */\n      dup4\n        /* \"SmartContract/128verifier.sol\":6211:6230  add(_pPairing, 160) */\n      add\n        /* \"SmartContract/128verifier.sol\":6204:6258  mstore(add(_pPairing, 160), calldataload(add(pB, 96))) */\n      mstore\n        /* \"SmartContract/128verifier.sol\":6330:6336  alphax */\n      0x2d4d9aa7e302d9df41749d5507949d05dbea33fbb16c643b22f599a2be6df2e2\n        /* \"SmartContract/128verifier.sol\":6324:6327  192 */\n      0xc0\n        /* \"SmartContract/128verifier.sol\":6313:6322  _pPairing */\n      dup4\n        /* \"SmartContract/128verifier.sol\":6309:6328  add(_pPairing, 192) */\n      add\n        /* \"SmartContract/128verifier.sol\":6302:6337  mstore(add(_pPairing, 192), alphax) */\n      mstore\n        /* \"SmartContract/128verifier.sol\":6382:6388  alphay */\n      0x14bedd503c37ceb061d8ec60209fe345ce89830a19230301f076caff004d1926\n        /* \"SmartContract/128verifier.sol\":6376:6379  224 */\n      0xe0\n        /* \"SmartContract/128verifier.sol\":6365:6374  _pPairing */\n      dup4\n        /* \"SmartContract/128verifier.sol\":6361:6380  add(_pPairing, 224) */\n      add\n        /* \"SmartContract/128verifier.sol\":6354:6389  mstore(add(_pPairing, 224), alphay) */\n      mstore\n        /* \"SmartContract/128verifier.sol\":6460:6466  betax1 */\n      0x0967032fcbf776d1afc985f88877f182d38480a653f2decaa9794cbc3bf3060c\n        /* \"SmartContract/128verifier.sol\":6454:6457  256 */\n      0x0100\n        /* \"SmartContract/128verifier.sol\":6443:6452  _pPairing */\n      dup4\n        /* \"SmartContract/128verifier.sol\":6439:6458  add(_pPairing, 256) */\n      add\n        /* \"SmartContract/128verifier.sol\":6432:6467  mstore(add(_pPairing, 256), betax1) */\n      mstore\n        /* \"SmartContract/128verifier.sol\":6512:6518  betax2 */\n      0x0e187847ad4c798374d0d6732bf501847dd68bc0e071241e0213bc7fc13db7ab\n        /* \"SmartContract/128verifier.sol\":6506:6509  288 */\n      0x0120\n        /* \"SmartContract/128verifier.sol\":6495:6504  _pPairing */\n      dup4\n        /* \"SmartContract/128verifier.sol\":6491:6510  add(_pPairing, 288) */\n      add\n        /* \"SmartContract/128verifier.sol\":6484:6519  mstore(add(_pPairing, 288), betax2) */\n      mstore\n        /* \"SmartContract/128verifier.sol\":6564:6570  betay1 */\n      0x304cfbd1e08a704a99f5e847d93f8c3caafddec46b7a0d379da69a4d112346a7\n        /* \"SmartContract/128verifier.sol\":6558:6561  320 */\n      0x0140\n        /* \"SmartContract/128verifier.sol\":6547:6556  _pPairing */\n      dup4\n        /* \"SmartContract/128verifier.sol\":6543:6562  add(_pPairing, 320) */\n      add\n        /* \"SmartContract/128verifier.sol\":6536:6571  mstore(add(_pPairing, 320), betay1) */\n      mstore\n        /* \"SmartContract/128verifier.sol\":6616:6622  betay2 */\n      0x1739c1b1a457a8c7313123d24d2f9192f896b7c63eea05a9d57f06547ad0cec8\n        /* \"SmartContract/128verifier.sol\":6610:6613  352 */\n      0x0160\n        /* \"SmartContract/128verifier.sol\":6599:6608  _pPairing */\n      dup4\n        /* \"SmartContract/128verifier.sol\":6595:6614  add(_pPairing, 352) */\n      add\n        /* \"SmartContract/128verifier.sol\":6588:6623  mstore(add(_pPairing, 352), betay2) */\n      mstore\n        /* \"SmartContract/128verifier.sol\":6709:6712  pVk */\n      0x00\n        /* \"SmartContract/128verifier.sol\":6703:6707  pMem */\n      dup9\n        /* \"SmartContract/128verifier.sol\":6699:6713  add(pMem, pVk) */\n      add\n        /* \"SmartContract/128verifier.sol\":6693:6714  mload(add(pMem, pVk)) */\n      mload\n        /* \"SmartContract/128verifier.sol\":6687:6690  384 */\n      0x0180\n        /* \"SmartContract/128verifier.sol\":6676:6685  _pPairing */\n      dup4\n        /* \"SmartContract/128verifier.sol\":6672:6691  add(_pPairing, 384) */\n      add\n        /* \"SmartContract/128verifier.sol\":6665:6715  mstore(add(_pPairing, 384), mload(add(pMem, pVk))) */\n      mstore\n        /* \"SmartContract/128verifier.sol\":6785:6787  32 */\n      0x20\n        /* \"SmartContract/128verifier.sol\":6780:6783  pVk */\n      0x00\n        /* \"SmartContract/128verifier.sol\":6776:6788  add(pVk, 32) */\n      add\n        /* \"SmartContract/128verifier.sol\":6770:6774  pMem */\n      dup9\n        /* \"SmartContract/128verifier.sol\":6766:6789  add(pMem, add(pVk, 32)) */\n      add\n        /* \"SmartContract/128verifier.sol\":6760:6790  mload(add(pMem, add(pVk, 32))) */\n      mload\n        /* \"SmartContract/128verifier.sol\":6754:6757  416 */\n      0x01a0\n        /* \"SmartContract/128verifier.sol\":6743:6752  _pPairing */\n      dup4\n        /* \"SmartContract/128verifier.sol\":6739:6758  add(_pPairing, 416) */\n      add\n        /* \"SmartContract/128verifier.sol\":6732:6791  mstore(add(_pPairing, 416), mload(add(pMem, add(pVk, 32)))) */\n      mstore\n        /* \"SmartContract/128verifier.sol\":6864:6871  gammax1 */\n      0x198e9393920d483a7260bfb731fb5d25f1aa493335a9e71297e485b7aef312c2\n        /* \"SmartContract/128verifier.sol\":6858:6861  448 */\n      0x01c0\n        /* \"SmartContract/128verifier.sol\":6847:6856  _pPairing */\n      dup4\n        /* \"SmartContract/128verifier.sol\":6843:6862  add(_pPairing, 448) */\n      add\n        /* \"SmartContract/128verifier.sol\":6836:6872  mstore(add(_pPairing, 448), gammax1) */\n      mstore\n        /* \"SmartContract/128verifier.sol\":6917:6924  gammax2 */\n      0x1800deef121f1e76426a00665e5c4479674322d4f75edadd46debd5cd992f6ed\n        /* \"SmartContract/128verifier.sol\":6911:6914  480 */\n      0x01e0\n        /* \"SmartContract/128verifier.sol\":6900:6909  _pPairing */\n      dup4\n        /* \"SmartContract/128verifier.sol\":6896:6915  add(_pPairing, 480) */\n      add\n        /* \"SmartContract/128verifier.sol\":6889:6925  mstore(add(_pPairing, 480), gammax2) */\n      mstore\n        /* \"SmartContract/128verifier.sol\":6970:6977  gammay1 */\n      0x090689d0585ff075ec9e99ad690c3395bc4b313370b38ef355acdadcd122975b\n        /* \"SmartContract/128verifier.sol\":6964:6967  512 */\n      0x0200\n        /* \"SmartContract/128verifier.sol\":6953:6962  _pPairing */\n      dup4\n        /* \"SmartContract/128verifier.sol\":6949:6968  add(_pPairing, 512) */\n      add\n        /* \"SmartContract/128verifier.sol\":6942:6978  mstore(add(_pPairing, 512), gammay1) */\n      mstore\n        /* \"SmartContract/128verifier.sol\":7023:7030  gammay2 */\n      0x12c85ea5db8c6deb4aab71808dcb408fe3d1e7690c43d37b4ce6cc0166fa7daa\n        /* \"SmartContract/128verifier.sol\":7017:7020  544 */\n      0x0220\n        /* \"SmartContract/128verifier.sol\":7006:7015  _pPairing */\n      dup4\n        /* \"SmartContract/128verifier.sol\":7002:7021  add(_pPairing, 544) */\n      add\n        /* \"SmartContract/128verifier.sol\":6995:7031  mstore(add(_pPairing, 544), gammay2) */\n      mstore\n        /* \"SmartContract/128verifier.sol\":7111:7113  pC */\n      dup6\n        /* \"SmartContract/128verifier.sol\":7098:7114  calldataload(pC) */\n      calldataload\n        /* \"SmartContract/128verifier.sol\":7092:7095  576 */\n      0x0240\n        /* \"SmartContract/128verifier.sol\":7081:7090  _pPairing */\n      dup4\n        /* \"SmartContract/128verifier.sol\":7077:7096  add(_pPairing, 576) */\n      add\n        /* \"SmartContract/128verifier.sol\":7070:7115  mstore(add(_pPairing, 576), calldataload(pC)) */\n      mstore\n        /* \"SmartContract/128verifier.sol\":7181:7183  32 */\n      0x20\n        /* \"SmartContract/128verifier.sol\":7177:7179  pC */\n      dup7\n        /* \"SmartContract/128verifier.sol\":7173:7184  add(pC, 32) */\n      add\n        /* \"SmartContract/128verifier.sol\":7160:7185  calldataload(add(pC, 32)) */\n      calldataload\n        /* \"SmartContract/128verifier.sol\":7154:7157  608 */\n      0x0260\n        /* \"SmartContract/128verifier.sol\":7143:7152  _pPairing */\n      dup4\n        /* \"SmartContract/128verifier.sol\":7139:7158  add(_pPairing, 608) */\n      add\n        /* \"SmartContract/128verifier.sol\":7132:7186  mstore(add(_pPairing, 608), calldataload(add(pC, 32))) */\n      mstore\n        /* \"SmartContract/128verifier.sol\":7258:7265  deltax1 */\n      0x198e9393920d483a7260bfb731fb5d25f1aa493335a9e71297e485b7aef312c2\n        /* \"SmartContract/128verifier.sol\":7252:7255  640 */\n      0x0280\n        /* \"SmartContract/128verifier.sol\":7241:7250  _pPairing */\n      dup4\n        /* \"SmartContract/128verifier.sol\":7237:7256  add(_pPairing, 640) */\n      add\n        /* \"SmartContract/128verifier.sol\":7230:7266  mstore(add(_pPairing, 640), deltax1) */\n      mstore\n        /* \"SmartContract/128verifier.sol\":7311:7318  deltax2 */\n      0x1800deef121f1e76426a00665e5c4479674322d4f75edadd46debd5cd992f6ed\n        /* \"SmartContract/128verifier.sol\":7305:7308  672 */\n      0x02a0\n        /* \"SmartContract/128verifier.sol\":7294:7303  _pPairing */\n      dup4\n        /* \"SmartContract/128verifier.sol\":7290:7309  add(_pPairing, 672) */\n      add\n        /* \"SmartContract/128verifier.sol\":7283:7319  mstore(add(_pPairing, 672), deltax2) */\n      mstore\n        /* \"SmartContract/128verifier.sol\":7364:7371  deltay1 */\n      0x090689d0585ff075ec9e99ad690c3395bc4b313370b38ef355acdadcd122975b\n        /* \"SmartContract/128verifier.sol\":7358:7361  704 */\n      0x02c0\n        /* \"SmartContract/128verifier.sol\":7347:7356  _pPairing */\n      dup4\n        /* \"SmartContract/128verifier.sol\":7343:7362  add(_pPairing, 704) */\n      add\n        /* \"SmartContract/128verifier.sol\":7336:7372  mstore(add(_pPairing, 704), deltay1) */\n      mstore\n        /* \"SmartContract/128verifier.sol\":7417:7424  deltay2 */\n      0x12c85ea5db8c6deb4aab71808dcb408fe3d1e7690c43d37b4ce6cc0166fa7daa\n        /* \"SmartContract/128verifier.sol\":7411:7414  736 */\n      0x02e0\n        /* \"SmartContract/128verifier.sol\":7400:7409  _pPairing */\n      dup4\n        /* \"SmartContract/128verifier.sol\":7396:7415  add(_pPairing, 736) */\n      add\n        /* \"SmartContract/128verifier.sol\":7389:7425  mstore(add(_pPairing, 736), deltay2) */\n      mstore\n        /* \"SmartContract/128verifier.sol\":7518:7522  0x20 */\n      0x20\n        /* \"SmartContract/128verifier.sol\":7507:7516  _pPairing */\n      dup3\n        /* \"SmartContract/128verifier.sol\":7502:7505  768 */\n      0x0300\n        /* \"SmartContract/128verifier.sol\":7491:7500  _pPairing */\n      dup5\n        /* \"SmartContract/128verifier.sol\":7488:7489  8 */\n      0x08\n        /* \"SmartContract/128verifier.sol\":7481:7485  2000 */\n      0x07d0\n        /* \"SmartContract/128verifier.sol\":7474:7479  gas() */\n      gas\n        /* \"SmartContract/128verifier.sol\":7470:7486  sub(gas(), 2000) */\n      sub\n        /* \"SmartContract/128verifier.sol\":7459:7523  staticcall(sub(gas(), 2000), 8, _pPairing, 768, _pPairing, 0x20) */\n      staticcall\n        /* \"SmartContract/128verifier.sol\":7568:7577  _pPairing */\n      dup3\n        /* \"SmartContract/128verifier.sol\":7562:7578  mload(_pPairing) */\n      mload\n        /* \"SmartContract/128verifier.sol\":7553:7560  success */\n      dup2\n        /* \"SmartContract/128verifier.sol\":7549:7579  and(success, mload(_pPairing)) */\n      and\n        /* \"SmartContract/128verifier.sol\":7541:7579  isOk := and(success, mload(_pPairing)) */\n      swap4\n      pop\n        /* \"SmartContract/128verifier.sol\":5165:7593  {... */\n      pop\n      pop\n      pop\n        /* \"SmartContract/128verifier.sol\":5105:7593  function checkPairing(pA, pB, pC, pubSignals, pMem) -> isOk {... */\n      swap6\n      swap5\n      pop\n      pop\n      pop\n      pop\n      pop\n      jump\t// out\n    tag_14:\n        /* \"SmartContract/128verifier.sol\":7625:7629  0x40 */\n      0x40\n        /* \"SmartContract/128verifier.sol\":7619:7630  mload(0x40) */\n      mload\n        /* \"SmartContract/128verifier.sol\":7666:7674  pLastMem */\n      0x0380\n        /* \"SmartContract/128verifier.sol\":7660:7664  pMem */\n      dup2\n        /* \"SmartContract/128verifier.sol\":7656:7675  add(pMem, pLastMem) */\n      add\n        /* \"SmartContract/128verifier.sol\":7650:7654  0x40 */\n      0x40\n        /* \"SmartContract/128verifier.sol\":7643:7676  mstore(0x40, add(pMem, pLastMem)) */\n      mstore\n        /* \"SmartContract/128verifier.sol\":7754:7799  checkField(calldataload(add(_pubSignals, 0))) */\n      tag_25\n        /* \"SmartContract/128verifier.sol\":7795:7796  0 */\n      0x00\n        /* \"SmartContract/128verifier.sol\":7782:7793  _pubSignals */\n      dup5\n        /* \"SmartContract/128verifier.sol\":7778:7797  add(_pubSignals, 0) */\n      add\n        /* \"SmartContract/128verifier.sol\":7765:7798  calldataload(add(_pubSignals, 0)) */\n      calldataload\n        /* \"SmartContract/128verifier.sol\":7754:7799  checkField(calldataload(add(_pubSignals, 0))) */\n      tag_11\n      jump\t// in\n    tag_25:\n        /* \"SmartContract/128verifier.sol\":7825:7871  checkField(calldataload(add(_pubSignals, 32))) */\n      tag_26\n        /* \"SmartContract/128verifier.sol\":7866:7868  32 */\n      0x20\n        /* \"SmartContract/128verifier.sol\":7853:7864  _pubSignals */\n      dup5\n        /* \"SmartContract/128verifier.sol\":7849:7869  add(_pubSignals, 32) */\n      add\n        /* \"SmartContract/128verifier.sol\":7836:7870  calldataload(add(_pubSignals, 32)) */\n      calldataload\n        /* \"SmartContract/128verifier.sol\":7825:7871  checkField(calldataload(add(_pubSignals, 32))) */\n      tag_11\n      jump\t// in\n    tag_26:\n        /* \"SmartContract/128verifier.sol\":7897:7943  checkField(calldataload(add(_pubSignals, 64))) */\n      tag_27\n        /* \"SmartContract/128verifier.sol\":7938:7940  64 */\n      0x40\n        /* \"SmartContract/128verifier.sol\":7925:7936  _pubSignals */\n      dup5\n        /* \"SmartContract/128verifier.sol\":7921:7941  add(_pubSignals, 64) */\n      add\n        /* \"SmartContract/128verifier.sol\":7908:7942  calldataload(add(_pubSignals, 64)) */\n      calldataload\n        /* \"SmartContract/128verifier.sol\":7897:7943  checkField(calldataload(add(_pubSignals, 64))) */\n      tag_11\n      jump\t// in\n    tag_27:\n        /* \"SmartContract/128verifier.sol\":7969:8015  checkField(calldataload(add(_pubSignals, 96))) */\n      tag_28\n        /* \"SmartContract/128verifier.sol\":8010:8012  96 */\n      0x60\n        /* \"SmartContract/128verifier.sol\":7997:8008  _pubSignals */\n      dup5\n        /* \"SmartContract/128verifier.sol\":7993:8013  add(_pubSignals, 96) */\n      add\n        /* \"SmartContract/128verifier.sol\":7980:8014  calldataload(add(_pubSignals, 96)) */\n      calldataload\n        /* \"SmartContract/128verifier.sol\":7969:8015  checkField(calldataload(add(_pubSignals, 96))) */\n      tag_11\n      jump\t// in\n    tag_28:\n        /* \"SmartContract/128verifier.sol\":8097:8143  checkPairing(_pA, _pB, _pC, _pubSignals, pMem) */\n      tag_29\n        /* \"SmartContract/128verifier.sol\":8138:8142  pMem */\n      dup2\n        /* \"SmartContract/128verifier.sol\":8125:8136  _pubSignals */\n      dup5\n        /* \"SmartContract/128verifier.sol\":8120:8123  _pC */\n      dup7\n        /* \"SmartContract/128verifier.sol\":8115:8118  _pB */\n      dup9\n        /* \"SmartContract/128verifier.sol\":8110:8113  _pA */\n      dup11\n        /* \"SmartContract/128verifier.sol\":8097:8143  checkPairing(_pA, _pB, _pC, _pubSignals, pMem) */\n      tag_13\n      jump\t// in\n    tag_29:\n        /* \"SmartContract/128verifier.sol\":8167:8174  isValid */\n      dup1\n        /* \"SmartContract/128verifier.sol\":8164:8165  0 */\n      0x00\n        /* \"SmartContract/128verifier.sol\":8157:8175  mstore(0, isValid) */\n      mstore\n        /* \"SmartContract/128verifier.sol\":8199:8203  0x20 */\n      0x20\n        /* \"SmartContract/128verifier.sol\":8196:8197  0 */\n      0x00\n        /* \"SmartContract/128verifier.sol\":8189:8204  return(0, 0x20) */\n      return\n        /* \"#utility.yul\":88:205   */\n    tag_31:\n        /* \"#utility.yul\":197:198   */\n      0x00\n        /* \"#utility.yul\":194:195   */\n      0x00\n        /* \"#utility.yul\":187:199   */\n      revert\n        /* \"#utility.yul\":334:451   */\n    tag_33:\n        /* \"#utility.yul\":443:444   */\n      0x00\n        /* \"#utility.yul\":440:441   */\n      0x00\n        /* \"#utility.yul\":433:445   */\n      revert\n        /* \"#utility.yul\":475:724   */\n    tag_34:\n        /* \"#utility.yul\":546:554   */\n      0x00\n        /* \"#utility.yul\":577:583   */\n      dup2\n        /* \"#utility.yul\":565:583   */\n      swap1\n      pop\n        /* \"#utility.yul\":630:633   */\n      dup3\n        /* \"#utility.yul\":622:626   */\n      0x20\n        /* \"#utility.yul\":616:620   */\n      0x02\n        /* \"#utility.yul\":612:627   */\n      mul\n        /* \"#utility.yul\":602:610   */\n      dup3\n        /* \"#utility.yul\":598:628   */\n      add\n        /* \"#utility.yul\":595:634   */\n      gt\n        /* \"#utility.yul\":592:718   */\n      iszero\n      tag_45\n      jumpi\n        /* \"#utility.yul\":637:716   */\n      tag_46\n      tag_33\n      jump\t// in\n    tag_46:\n        /* \"#utility.yul\":592:718   */\n    tag_45:\n        /* \"#utility.yul\":475:724   */\n      swap3\n      swap2\n      pop\n      pop\n      jump\t// out\n        /* \"#utility.yul\":751:1025   */\n    tag_35:\n        /* \"#utility.yul\":847:855   */\n      0x00\n        /* \"#utility.yul\":878:884   */\n      dup2\n        /* \"#utility.yul\":866:884   */\n      swap1\n      pop\n        /* \"#utility.yul\":931:934   */\n      dup3\n        /* \"#utility.yul\":923:927   */\n      0x40\n        /* \"#utility.yul\":917:921   */\n      0x02\n        /* \"#utility.yul\":913:928   */\n      mul\n        /* \"#utility.yul\":903:911   */\n      dup3\n        /* \"#utility.yul\":899:929   */\n      add\n        /* \"#utility.yul\":896:935   */\n      gt\n        /* \"#utility.yul\":893:1019   */\n      iszero\n      tag_48\n      jumpi\n        /* \"#utility.yul\":938:1017   */\n      tag_49\n      tag_33\n      jump\t// in\n    tag_49:\n        /* \"#utility.yul\":893:1019   */\n    tag_48:\n        /* \"#utility.yul\":751:1025   */\n      swap3\n      swap2\n      pop\n      pop\n      jump\t// out\n        /* \"#utility.yul\":1049:1298   */\n    tag_36:\n        /* \"#utility.yul\":1120:1128   */\n      0x00\n        /* \"#utility.yul\":1151:1157   */\n      dup2\n        /* \"#utility.yul\":1139:1157   */\n      swap1\n      pop\n        /* \"#utility.yul\":1204:1207   */\n      dup3\n        /* \"#utility.yul\":1196:1200   */\n      0x20\n        /* \"#utility.yul\":1190:1194   */\n      0x04\n        /* \"#utility.yul\":1186:1201   */\n      mul\n        /* \"#utility.yul\":1176:1184   */\n      dup3\n        /* \"#utility.yul\":1172:1202   */\n      add\n        /* \"#utility.yul\":1169:1208   */\n      gt\n        /* \"#utility.yul\":1166:1292   */\n      iszero\n      tag_51\n      jumpi\n        /* \"#utility.yul\":1211:1290   */\n      tag_52\n      tag_33\n      jump\t// in\n    tag_52:\n        /* \"#utility.yul\":1166:1292   */\n    tag_51:\n        /* \"#utility.yul\":1049:1298   */\n      swap3\n      swap2\n      pop\n      pop\n      jump\t// out\n        /* \"#utility.yul\":1304:2321   */\n    tag_6:\n        /* \"#utility.yul\":1515:1521   */\n      0x00\n        /* \"#utility.yul\":1523:1529   */\n      0x00\n        /* \"#utility.yul\":1531:1537   */\n      0x00\n        /* \"#utility.yul\":1539:1545   */\n      0x00\n        /* \"#utility.yul\":1588:1591   */\n      0x0180\n        /* \"#utility.yul\":1576:1585   */\n      dup6\n        /* \"#utility.yul\":1567:1574   */\n      dup8\n        /* \"#utility.yul\":1563:1586   */\n      sub\n        /* \"#utility.yul\":1559:1592   */\n      slt\n        /* \"#utility.yul\":1556:1676   */\n      iszero\n      tag_54\n      jumpi\n        /* \"#utility.yul\":1595:1674   */\n      tag_55\n      tag_31\n      jump\t// in\n    tag_55:\n        /* \"#utility.yul\":1556:1676   */\n    tag_54:\n        /* \"#utility.yul\":1715:1716   */\n      0x00\n        /* \"#utility.yul\":1740:1818   */\n      tag_56\n        /* \"#utility.yul\":1810:1817   */\n      dup8\n        /* \"#utility.yul\":1801:1807   */\n      dup3\n        /* \"#utility.yul\":1790:1799   */\n      dup9\n        /* \"#utility.yul\":1786:1808   */\n      add\n        /* \"#utility.yul\":1740:1818   */\n      tag_34\n      jump\t// in\n    tag_56:\n        /* \"#utility.yul\":1730:1818   */\n      swap5\n      pop\n        /* \"#utility.yul\":1686:1828   */\n      pop\n        /* \"#utility.yul\":1867:1869   */\n      0x40\n        /* \"#utility.yul\":1893:1996   */\n      tag_57\n        /* \"#utility.yul\":1988:1995   */\n      dup8\n        /* \"#utility.yul\":1979:1985   */\n      dup3\n        /* \"#utility.yul\":1968:1977   */\n      dup9\n        /* \"#utility.yul\":1964:1986   */\n      add\n        /* \"#utility.yul\":1893:1996   */\n      tag_35\n      jump\t// in\n    tag_57:\n        /* \"#utility.yul\":1883:1996   */\n      swap4\n      pop\n        /* \"#utility.yul\":1838:2006   */\n      pop\n        /* \"#utility.yul\":2045:2048   */\n      0xc0\n        /* \"#utility.yul\":2072:2150   */\n      tag_58\n        /* \"#utility.yul\":2142:2149   */\n      dup8\n        /* \"#utility.yul\":2133:2139   */\n      dup3\n        /* \"#utility.yul\":2122:2131   */\n      dup9\n        /* \"#utility.yul\":2118:2140   */\n      add\n        /* \"#utility.yul\":2072:2150   */\n      tag_34\n      jump\t// in\n    tag_58:\n        /* \"#utility.yul\":2062:2150   */\n      swap3\n      pop\n        /* \"#utility.yul\":2016:2160   */\n      pop\n        /* \"#utility.yul\":2199:2202   */\n      0x0100\n        /* \"#utility.yul\":2226:2304   */\n      tag_59\n        /* \"#utility.yul\":2296:2303   */\n      dup8\n        /* \"#utility.yul\":2287:2293   */\n      dup3\n        /* \"#utility.yul\":2276:2285   */\n      dup9\n        /* \"#utility.yul\":2272:2294   */\n      add\n        /* \"#utility.yul\":2226:2304   */\n      tag_36\n      jump\t// in\n    tag_59:\n        /* \"#utility.yul\":2216:2304   */\n      swap2\n      pop\n        /* \"#utility.yul\":2170:2314   */\n      pop\n        /* \"#utility.yul\":1304:2321   */\n      swap3\n      swap6\n      swap2\n      swap5\n      pop\n      swap3\n      pop\n      jump\t// out\n        /* \"#utility.yul\":2327:2417   */\n    tag_37:\n        /* \"#utility.yul\":2361:2368   */\n      0x00\n        /* \"#utility.yul\":2404:2409   */\n      dup2\n        /* \"#utility.yul\":2397:2410   */\n      iszero\n        /* \"#utility.yul\":2390:2411   */\n      iszero\n        /* \"#utility.yul\":2379:2411   */\n      swap1\n      pop\n        /* \"#utility.yul\":2327:2417   */\n      swap2\n      swap1\n      pop\n      jump\t// out\n        /* \"#utility.yul\":2423:2532   */\n    tag_38:\n        /* \"#utility.yul\":2504:2525   */\n      tag_62\n        /* \"#utility.yul\":2519:2524   */\n      dup2\n        /* \"#utility.yul\":2504:2525   */\n      tag_37\n      jump\t// in\n    tag_62:\n        /* \"#utility.yul\":2499:2502   */\n      dup3\n        /* \"#utility.yul\":2492:2526   */\n      mstore\n        /* \"#utility.yul\":2423:2532   */\n      pop\n      pop\n      jump\t// out\n        /* \"#utility.yul\":2538:2748   */\n    tag_9:\n        /* \"#utility.yul\":2625:2629   */\n      0x00\n        /* \"#utility.yul\":2663:2665   */\n      0x20\n        /* \"#utility.yul\":2652:2661   */\n      dup3\n        /* \"#utility.yul\":2648:2666   */\n      add\n        /* \"#utility.yul\":2640:2666   */\n      swap1\n      pop\n        /* \"#utility.yul\":2676:2741   */\n      tag_64\n        /* \"#utility.yul\":2738:2739   */\n      0x00\n        /* \"#utility.yul\":2727:2736   */\n      dup4\n        /* \"#utility.yul\":2723:2740   */\n      add\n        /* \"#utility.yul\":2714:2720   */\n      dup5\n        /* \"#utility.yul\":2676:2741   */\n      tag_38\n      jump\t// in\n    tag_64:\n        /* \"#utility.yul\":2538:2748   */\n      swap3\n      swap2\n      pop\n      pop\n      jump\t// out\n\n    auxdata: 0xa2646970667358221220ba6b7c3cc5be39431ced4cf91b229d8cabb94b694c733a3721214003aa92c48a64736f6c634300081d0033\n}\n",
				"bytecode": {
					"linkReferences": {},
					"object": "6080604052348015600e575f5ffd5b506106fa8061001c5f395ff3fe608060405234801561000f575f5ffd5b5060043610610029575f3560e01c80635fe8c13b1461002d575b5f5ffd5b6100476004803603810190610042919061062b565b61005d565b60405161005491906106ab565b60405180910390f35b5f61056d565b7f30644e72e131a029b85045b68181585d2833e84879b9709143e1f593f00000018110610092575f5f5260205ff35b50565b5f60405183815284602082015285604082015260408160608360076107d05a03fa9150816100c5575f5f5260205ff35b825160408201526020830151606082015260408360808360066107d05a03fa9150816100f3575f5f5260205ff35b505050505050565b5f608086015f87017f2e72352dadc5bbab774fb02864c8f029d271fae833e2177fbea42282e0af54d081527f2bbb0669ed09581e5b20c9be34bb962ebee0e649248e13f746ef1b1bf1a5b27d602082015261019b5f8801357f087b302e7c515b3d2550f0375529e47040a5b9fcc50abd0d35cac327d316c8197f2b0d25fde8c9a5202ed62d856c37293162cf07a7fc14479cd3ee074efdce1ed984610095565b6101eb60208801357f2ab4baf7fdb691008de7d18b366716de230240b61b895da63e2137dcde7127297f03b4bc49baf98e1ea64549b40f59392301517e7d82856e0c2998c3056227fee684610095565b61023b60408801357f0b13f341534f9f82248049b1bc287844d59874d88451494ea3eccacd3bde979c7f289812be798a7643c852106db38b79260a99217d0339145ed9e5002de630cdf384610095565b61028b60608801357f15ccae478d3ea5c61ae37f421bfdff897bc340771d09f81828c9cb95b4aef4f97f05cd832c221cd2a9e3d83758ad20b7f0e96182022b93d3d379460c8edff0708084610095565b833582527f30644e72e131a029b85045b68181585d97816a916871ca8d3c208c16d87cfd4760208501357f30644e72e131a029b85045b68181585d97816a916871ca8d3c208c16d87cfd4703066020830152843560408301526020850135606083015260408501356080830152606085013560a08301527f2d4d9aa7e302d9df41749d5507949d05dbea33fbb16c643b22f599a2be6df2e260c08301527f14bedd503c37ceb061d8ec60209fe345ce89830a19230301f076caff004d192660e08301527f0967032fcbf776d1afc985f88877f182d38480a653f2decaa9794cbc3bf3060c6101008301527f0e187847ad4c798374d0d6732bf501847dd68bc0e071241e0213bc7fc13db7ab6101208301527f304cfbd1e08a704a99f5e847d93f8c3caafddec46b7a0d379da69a4d112346a76101408301527f1739c1b1a457a8c7313123d24d2f9192f896b7c63eea05a9d57f06547ad0cec86101608301525f88015161018083015260205f018801516101a08301527f198e9393920d483a7260bfb731fb5d25f1aa493335a9e71297e485b7aef312c26101c08301527f1800deef121f1e76426a00665e5c4479674322d4f75edadd46debd5cd992f6ed6101e08301527f090689d0585ff075ec9e99ad690c3395bc4b313370b38ef355acdadcd122975b6102008301527f12c85ea5db8c6deb4aab71808dcb408fe3d1e7690c43d37b4ce6cc0166fa7daa610220830152853561024083015260208601356102608301527f198e9393920d483a7260bfb731fb5d25f1aa493335a9e71297e485b7aef312c26102808301527f1800deef121f1e76426a00665e5c4479674322d4f75edadd46debd5cd992f6ed6102a08301527f090689d0585ff075ec9e99ad690c3395bc4b313370b38ef355acdadcd122975b6102c08301527f12c85ea5db8c6deb4aab71808dcb408fe3d1e7690c43d37b4ce6cc0166fa7daa6102e08301526020826103008460086107d05a03fa82518116935050505095945050505050565b60405161038081016040526105845f840135610063565b6105916020840135610063565b61059e6040840135610063565b6105ab6060840135610063565b6105b8818486888a6100fb565b805f5260205ff35b5f5ffd5b5f5ffd5b5f819050826020600202820111156105e3576105e26105c4565b5b92915050565b5f81905082604060020282011115610604576106036105c4565b5b92915050565b5f81905082602060040282011115610625576106246105c4565b5b92915050565b5f5f5f5f6101808587031215610644576106436105c0565b5b5f610651878288016105c8565b9450506040610662878288016105e9565b93505060c0610673878288016105c8565b9250506101006106858782880161060a565b91505092959194509250565b5f8115159050919050565b6106a581610691565b82525050565b5f6020820190506106be5f83018461069c565b9291505056fea2646970667358221220ba6b7c3cc5be39431ced4cf91b229d8cabb94b694c733a3721214003aa92c48a64736f6c634300081d0033",
					"opcodes": "PUSH1 0x80 PUSH1 0x40 MSTORE CALLVALUE DUP1 ISZERO PUSH1 0xE JUMPI PUSH0 PUSH0 REVERT JUMPDEST POP PUSH2 0x6FA DUP1 PUSH2 0x1C PUSH0 CODECOPY PUSH0 RETURN INVALID PUSH1 0x80 PUSH1 0x40 MSTORE CALLVALUE DUP1 ISZERO PUSH2 0xF JUMPI PUSH0 PUSH0 REVERT JUMPDEST POP PUSH1 0x4 CALLDATASIZE LT PUSH2 0x29 JUMPI PUSH0 CALLDATALOAD PUSH1 0xE0 SHR DUP1 PUSH4 0x5FE8C13B EQ PUSH2 0x2D JUMPI JUMPDEST PUSH0 PUSH0 REVERT JUMPDEST PUSH2 0x47 PUSH1 0x4 DUP1 CALLDATASIZE SUB DUP2 ADD SWAP1 PUSH2 0x42 SWAP2 SWAP1 PUSH2 0x62B JUMP JUMPDEST PUSH2 0x5D JUMP JUMPDEST PUSH1 0x40 MLOAD PUSH2 0x54 SWAP2 SWAP1 PUSH2 0x6AB JUMP JUMPDEST PUSH1 0x40 MLOAD DUP1 SWAP2 SUB SWAP1 RETURN JUMPDEST PUSH0 PUSH2 0x56D JUMP JUMPDEST PUSH32 0x30644E72E131A029B85045B68181585D2833E84879B9709143E1F593F0000001 DUP2 LT PUSH2 0x92 JUMPI PUSH0 PUSH0 MSTORE PUSH1 0x20 PUSH0 RETURN JUMPDEST POP JUMP JUMPDEST PUSH0 PUSH1 0x40 MLOAD DUP4 DUP2 MSTORE DUP5 PUSH1 0x20 DUP3 ADD MSTORE DUP6 PUSH1 0x40 DUP3 ADD MSTORE PUSH1 0x40 DUP2 PUSH1 0x60 DUP4 PUSH1 0x7 PUSH2 0x7D0 GAS SUB STATICCALL SWAP2 POP DUP2 PUSH2 0xC5 JUMPI PUSH0 PUSH0 MSTORE PUSH1 0x20 PUSH0 RETURN JUMPDEST DUP3 MLOAD PUSH1 0x40 DUP3 ADD MSTORE PUSH1 0x20 DUP4 ADD MLOAD PUSH1 0x60 DUP3 ADD MSTORE PUSH1 0x40 DUP4 PUSH1 0x80 DUP4 PUSH1 0x6 PUSH2 0x7D0 GAS SUB STATICCALL SWAP2 POP DUP2 PUSH2 0xF3 JUMPI PUSH0 PUSH0 MSTORE PUSH1 0x20 PUSH0 RETURN JUMPDEST POP POP POP POP POP POP JUMP JUMPDEST PUSH0 PUSH1 0x80 DUP7 ADD PUSH0 DUP8 ADD PUSH32 0x2E72352DADC5BBAB774FB02864C8F029D271FAE833E2177FBEA42282E0AF54D0 DUP2 MSTORE PUSH32 0x2BBB0669ED09581E5B20C9BE34BB962EBEE0E649248E13F746EF1B1BF1A5B27D PUSH1 0x20 DUP3 ADD MSTORE PUSH2 0x19B PUSH0 DUP9 ADD CALLDATALOAD PUSH32 0x87B302E7C515B3D2550F0375529E47040A5B9FCC50ABD0D35CAC327D316C819 PUSH32 0x2B0D25FDE8C9A5202ED62D856C37293162CF07A7FC14479CD3EE074EFDCE1ED9 DUP5 PUSH2 0x95 JUMP JUMPDEST PUSH2 0x1EB PUSH1 0x20 DUP9 ADD CALLDATALOAD PUSH32 0x2AB4BAF7FDB691008DE7D18B366716DE230240B61B895DA63E2137DCDE712729 PUSH32 0x3B4BC49BAF98E1EA64549B40F59392301517E7D82856E0C2998C3056227FEE6 DUP5 PUSH2 0x95 JUMP JUMPDEST PUSH2 0x23B PUSH1 0x40 DUP9 ADD CALLDATALOAD PUSH32 0xB13F341534F9F82248049B1BC287844D59874D88451494EA3ECCACD3BDE979C PUSH32 0x289812BE798A7643C852106DB38B79260A99217D0339145ED9E5002DE630CDF3 DUP5 PUSH2 0x95 JUMP JUMPDEST PUSH2 0x28B PUSH1 0x60 DUP9 ADD CALLDATALOAD PUSH32 0x15CCAE478D3EA5C61AE37F421BFDFF897BC340771D09F81828C9CB95B4AEF4F9 PUSH32 0x5CD832C221CD2A9E3D83758AD20B7F0E96182022B93D3D379460C8EDFF07080 DUP5 PUSH2 0x95 JUMP JUMPDEST DUP4 CALLDATALOAD DUP3 MSTORE PUSH32 0x30644E72E131A029B85045B68181585D97816A916871CA8D3C208C16D87CFD47 PUSH1 0x20 DUP6 ADD CALLDATALOAD PUSH32 0x30644E72E131A029B85045B68181585D97816A916871CA8D3C208C16D87CFD47 SUB MOD PUSH1 0x20 DUP4 ADD MSTORE DUP5 CALLDATALOAD PUSH1 0x40 DUP4 ADD MSTORE PUSH1 0x20 DUP6 ADD CALLDATALOAD PUSH1 0x60 DUP4 ADD MSTORE PUSH1 0x40 DUP6 ADD CALLDATALOAD PUSH1 0x80 DUP4 ADD MSTORE PUSH1 0x60 DUP6 ADD CALLDATALOAD PUSH1 0xA0 DUP4 ADD MSTORE PUSH32 0x2D4D9AA7E302D9DF41749D5507949D05DBEA33FBB16C643B22F599A2BE6DF2E2 PUSH1 0xC0 DUP4 ADD MSTORE PUSH32 0x14BEDD503C37CEB061D8EC60209FE345CE89830A19230301F076CAFF004D1926 PUSH1 0xE0 DUP4 ADD MSTORE PUSH32 0x967032FCBF776D1AFC985F88877F182D38480A653F2DECAA9794CBC3BF3060C PUSH2 0x100 DUP4 ADD MSTORE PUSH32 0xE187847AD4C798374D0D6732BF501847DD68BC0E071241E0213BC7FC13DB7AB PUSH2 0x120 DUP4 ADD MSTORE PUSH32 0x304CFBD1E08A704A99F5E847D93F8C3CAAFDDEC46B7A0D379DA69A4D112346A7 PUSH2 0x140 DUP4 ADD MSTORE PUSH32 0x1739C1B1A457A8C7313123D24D2F9192F896B7C63EEA05A9D57F06547AD0CEC8 PUSH2 0x160 DUP4 ADD MSTORE PUSH0 DUP9 ADD MLOAD PUSH2 0x180 DUP4 ADD MSTORE PUSH1 0x20 PUSH0 ADD DUP9 ADD MLOAD PUSH2 0x1A0 DUP4 ADD MSTORE PUSH32 0x198E9393920D483A7260BFB731FB5D25F1AA493335A9E71297E485B7AEF312C2 PUSH2 0x1C0 DUP4 ADD MSTORE PUSH32 0x1800DEEF121F1E76426A00665E5C4479674322D4F75EDADD46DEBD5CD992F6ED PUSH2 0x1E0 DUP4 ADD MSTORE PUSH32 0x90689D0585FF075EC9E99AD690C3395BC4B313370B38EF355ACDADCD122975B PUSH2 0x200 DUP4 ADD MSTORE PUSH32 0x12C85EA5DB8C6DEB4AAB71808DCB408FE3D1E7690C43D37B4CE6CC0166FA7DAA PUSH2 0x220 DUP4 ADD MSTORE DUP6 CALLDATALOAD PUSH2 0x240 DUP4 ADD MSTORE PUSH1 0x20 DUP7 ADD CALLDATALOAD PUSH2 0x260 DUP4 ADD MSTORE PUSH32 0x198E9393920D483A7260BFB731FB5D25F1AA493335A9E71297E485B7AEF312C2 PUSH2 0x280 DUP4 ADD MSTORE PUSH32 0x1800DEEF121F1E76426A00665E5C4479674322D4F75EDADD46DEBD5CD992F6ED PUSH2 0x2A0 DUP4 ADD MSTORE PUSH32 0x90689D0585FF075EC9E99AD690C3395BC4B313370B38EF355ACDADCD122975B PUSH2 0x2C0 DUP4 ADD MSTORE PUSH32 0x12C85EA5DB8C6DEB4AAB71808DCB408FE3D1E7690C43D37B4CE6CC0166FA7DAA PUSH2 0x2E0 DUP4 ADD MSTORE PUSH1 0x20 DUP3 PUSH2 0x300 DUP5 PUSH1 0x8 PUSH2 0x7D0 GAS SUB STATICCALL DUP3 MLOAD DUP2 AND SWAP4 POP POP POP POP SWAP6 SWAP5 POP POP POP POP POP JUMP JUMPDEST PUSH1 0x40 MLOAD PUSH2 0x380 DUP2 ADD PUSH1 0x40 MSTORE PUSH2 0x584 PUSH0 DUP5 ADD CALLDATALOAD PUSH2 0x63 JUMP JUMPDEST PUSH2 0x591 PUSH1 0x20 DUP5 ADD CALLDATALOAD PUSH2 0x63 JUMP JUMPDEST PUSH2 0x59E PUSH1 0x40 DUP5 ADD CALLDATALOAD PUSH2 0x63 JUMP JUMPDEST PUSH2 0x5AB PUSH1 0x60 DUP5 ADD CALLDATALOAD PUSH2 0x63 JUMP JUMPDEST PUSH2 0x5B8 DUP2 DUP5 DUP7 DUP9 DUP11 PUSH2 0xFB JUMP JUMPDEST DUP1 PUSH0 MSTORE PUSH1 0x20 PUSH0 RETURN JUMPDEST PUSH0 PUSH0 REVERT JUMPDEST PUSH0 PUSH0 REVERT JUMPDEST PUSH0 DUP2 SWAP1 POP DUP3 PUSH1 0x20 PUSH1 0x2 MUL DUP3 ADD GT ISZERO PUSH2 0x5E3 JUMPI PUSH2 0x5E2 PUSH2 0x5C4 JUMP JUMPDEST JUMPDEST SWAP3 SWAP2 POP POP JUMP JUMPDEST PUSH0 DUP2 SWAP1 POP DUP3 PUSH1 0x40 PUSH1 0x2 MUL DUP3 ADD GT ISZERO PUSH2 0x604 JUMPI PUSH2 0x603 PUSH2 0x5C4 JUMP JUMPDEST JUMPDEST SWAP3 SWAP2 POP POP JUMP JUMPDEST PUSH0 DUP2 SWAP1 POP DUP3 PUSH1 0x20 PUSH1 0x4 MUL DUP3 ADD GT ISZERO PUSH2 0x625 JUMPI PUSH2 0x624 PUSH2 0x5C4 JUMP JUMPDEST JUMPDEST SWAP3 SWAP2 POP POP JUMP JUMPDEST PUSH0 PUSH0 PUSH0 PUSH0 PUSH2 0x180 DUP6 DUP8 SUB SLT ISZERO PUSH2 0x644 JUMPI PUSH2 0x643 PUSH2 0x5C0 JUMP JUMPDEST JUMPDEST PUSH0 PUSH2 0x651 DUP8 DUP3 DUP9 ADD PUSH2 0x5C8 JUMP JUMPDEST SWAP5 POP POP PUSH1 0x40 PUSH2 0x662 DUP8 DUP3 DUP9 ADD PUSH2 0x5E9 JUMP JUMPDEST SWAP4 POP POP PUSH1 0xC0 PUSH2 0x673 DUP8 DUP3 DUP9 ADD PUSH2 0x5C8 JUMP JUMPDEST SWAP3 POP POP PUSH2 0x100 PUSH2 0x685 DUP8 DUP3 DUP9 ADD PUSH2 0x60A JUMP JUMPDEST SWAP2 POP POP SWAP3 SWAP6 SWAP2 SWAP5 POP SWAP3 POP JUMP JUMPDEST PUSH0 DUP2 ISZERO ISZERO SWAP1 POP SWAP2 SWAP1 POP JUMP JUMPDEST PUSH2 0x6A5 DUP2 PUSH2 0x691 JUMP JUMPDEST DUP3 MSTORE POP POP JUMP JUMPDEST PUSH0 PUSH1 0x20 DUP3 ADD SWAP1 POP PUSH2 0x6BE PUSH0 DUP4 ADD DUP5 PUSH2 0x69C JUMP JUMPDEST SWAP3 SWAP2 POP POP JUMP INVALID LOG2 PUSH5 0x6970667358 0x22 SLT KECCAK256 0xBA PUSH12 0x7C3CC5BE39431CED4CF91B22 SWAP14 DUP13 0xAB 0xB9 0x4B PUSH10 0x4C733A3721214003AA92 0xC4 DUP11 PUSH5 0x736F6C6343 STOP ADDMOD SAR STOP CALLER "
				},
				"gasEstimates": {
					"creation": {
						"codeDepositCost": "357200",
						"executionCost": "391",
						"totalCost": "357591"
					},
					"external": {
						"verifyProof(uint256[2],uint256[2][2],uint256[2],uint256[4])": "infinite"
					}
				},
				"methodIdentifiers": {
					"verifyProof(uint256[2],uint256[2][2],uint256[2],uint256[4])": "5fe8c13b"
				}
			},
			"storageLayout": {
				"storage": [],
				"types": null
			},
			"userdoc": {
				"kind": "user",
				"methods": {},
				"version": 1
			}
		}
	}
}